:020000040000FA
:100000000C9463000C948B000C948B000C948B006C
:100010000C948B000C948B000C948B000C94D305E7
:100020000C948B000C948B000C948B000C948B0024
:100030000C948B000C948B000C948B000C948B0014
:100040000C9489050C948B000C9455060C942F0687
:100050000C948B000C948B000C948B000C948B00F4
:100060000C948B000C948B000000000023002600F1
:10007000290000000000240027002A0000000008DA
:10008000000201000003040700000000000000005F
:10009000010204081020408001020408102001021F
:1000A0000408102000000000250028002B00040494
:1000B0000404040404040202020202020303030310
:1000C00003030200E40811241FBECFEFD8E0DEBF17
:1000D000CDBF11E0A0E0B1E0E2EDF6E102C0059095
:1000E0000D92AE33B107D9F721E0AEE3B1E001C024
:1000F0001D92A93FB207E1F710E0C3E6D0E004C0CB
:100100002197FE010E94520BC236D107C9F70E9407
:10011000CC060C94670B0C94000090E0FC01E458B2
:10012000FF4F2491FC01E057FF4F3491FC01E25551
:10013000FF4FE491EE23C9F0222339F0233001F17F
:10014000A8F4213019F1223029F1F0E0EE0FFF1F61
:10015000EC55FF4FA591B4918FB7F894EC916111D4
:1001600026C030953E233C938FBF08952730A9F0D9
:100170002830C9F0243049F7809180008F7D03C07A
:10018000809180008F7780938000DFCF84B58F7758
:1001900084BDDBCF84B58F7DFBCF8091B0008F779E
:1001A0008093B000D2CF8091B0008F7DF9CF3E2BED
:1001B000DACFCF93DF9390E0FC01E057FF4F24911B
:1001C00082559F4FFC0184918823D1F090E0880FE5
:1001D000991FFC01EE58FF4FA591B491FC01EC551D
:1001E000FF4FC591D49161110EC09FB7F8948C91C7
:1001F000E22FE0958E238C932881E223E8839FBF32
:10020000DF91CF9108958FB7F894EC91E22BEC93A6
:100210008FBFF6CF3FB7F894809147019091480186
:10022000A0914901B0914A0126B5A89B05C02F3F76
:1002300019F00196A11DB11D3FBFBA2FA92F982F0C
:100240008827BC01CD01620F711D811D911D42E007
:10025000660F771F881F991F4A95D1F708958F92CF
:100260009F92AF92BF92CF92DF92EF92FF926B017B
:100270007C010E940A014B015C01C114D104E1041C
:10028000F104B9F00E940A01681979098A099B09E9
:10029000683E73408105910580F321E0C21AD108C0
:1002A000E108F10888EE880E83E0981EA11CB11CBD
:1002B000E4CFFF90EF90DF90CF90BF90AF909F90F2
:1002C0008F9008959091080189130BC0E2ECF0E043
:1002D000E4919FEF90930801E13049F028F0E2307B
:1002E00061F060E00C948D0010926E00FACF909156
:1002F0006F009D7F90936F00F4CF909170009D7F71
:100300009093700091E09093B0009091B100987F2D
:1003100094609093B1001092B300E3CF2F923F927C
:100320004F925F926F927F928F929F92AF92BF9205
:10033000CF92DF92EF92FF920F931F93CF93DF93B1
:10034000CDB7DEB72B970FB6F894DEBF0FBECDBF8B
:100350008C0189E091E09E838D83F8013496FA87C1
:10036000E987F801619171918F0188EE93E00E9415
:10037000E20A78876F832B01770F66087708ED8193
:10038000FE8121903190FE83ED83809108018630BB
:1003900009F07CC0E2ECF0E0F491FB87F7FD58C176
:1003A00061E086E00E94D900FB85FF2321F08B8568
:1003B000823009F083C14101B12CA12C60E072E1CF
:1003C0008AE790E0A50191010E94180B29833A83E6
:1003D0004B835C8369017A0191E0C91AD108E10875
:1003E000F108EFEFCE16D104E104F10409F00CF4AA
:1003F00007C160E472E48FE090E0A50191010E94E2
:10040000180B69017A01F1E0CF1AD108E108F1086F
:100410008B85823009F0B1C082E09FEFC916D1040C
:10042000E104F10409F00CF4E4C060E970ED83E04C
:1004300090E0A50191010E94180B69017A01E1E0A9
:10044000CE1AD108E108F10883E0FFEFCF16D104FE
:10045000E104F10409F00CF4CCC068E478EE81E02A
:1004600090E0A50191010E94180B69017A0181E0D9
:10047000C81AD108E108F1089FEFC916D104E104B8
:10048000F10411F00CF09DC084E0B3C08F3F09F07F
:10049000DFC086E080930801E2ECF0E0F491FB8796
:1004A000FF3F09F4D5C0F13031F158F0F23009F4D2
:1004B00041C0FB85F7FDCCC061E086E00E94D90019
:1004C00076CF14BC15BC84B5826084BD85B58160CF
:1004D00085BDE4EBF0E08491E82FF0E0EE0FFF1F24
:1004E000EC55FF4F85919491E6E9F0E0849180937B
:1004F000EC011B8655CF10928000109281008091F4
:100500008100886080938100809181008160809368
:100510008100E4EBF0E08491E82FF0E0EE0FFF1FA4
:10052000EC55FF4F85919491E6E9F0E0849180933A
:10053000EB0136CF1092B0001092B1008091B00064
:1005400082608093B0008091B10081608093B1009F
:10055000E4EBF0E08491E82FF0E0EE0FFF1FEC55A4
:10056000FF4F859194919093EA018093E901E6E928
:10057000F0E084918093E80113CF8FEFC816D10487
:10058000E104F10409F00CF497C068E478EE81E02E
:1005900090E0A50191010E94180B69017A0191E098
:1005A000C91AD108E108F108EB85EE2309F41CC152
:1005B0008FEFC816D104E104F10411F00CF01DC155
:1005C00063CF64E274EF80E090E0A50194010E94A3
:1005D000180B69017A01F1E0CF1AD108E108F1089E
:1005E0008FEFC816D104E104F10411F008F0ECC05B
:1005F00085E09091B100987F892B8093B10008C06D
:1006000081E0FB85F111F5CF95B5987F892B85BDEC
:100610002FEF3FEFA901411451046104710409F067
:1006200077C08B85813009F492C0823009F4A1C073
:1006300081110EC0C7BC2093F5013093F6014093A1
:10064000F7015093F80180916E00826080936E00F4
:10065000C301B2010E94BB0926E636E646EA5FE323
:100660000E94700A0E948309072E000C880B990BC8
:100670000E942F0186E00E946201E985FA85E01759
:10068000F10709F06ECE2B960FB6F894DEBF0FBEC1
:10069000CDBFDF91CF911F910F91FF90EF90DF9031
:1006A000CF90BF90AF909F908F907F906F905F9012
:1006B0004F903F902F90089582E0A3CFB12CA12CB2
:1006C00060E072E18AE790E0A50191010E94180BB9
:1006D00069017A0181E0C81AD108E108F108C11462
:1006E000D10491E0E906F1040CF591E0FB85F130CD
:1006F00009F08ECF80918100887F892B80938100C3
:100700002FEF3FEFA9014114510461047104F9F086
:100710009101220F331FAF81B8850E94370B28EE5D
:1007200033E040E050E00E94F60A7BCF68E478EEC8
:1007300081E090E0A50191010E94180B69017A0106
:10074000E1E0CE1AD108E108F10893E0CFCFD092D2
:100750008900C09288002093F1013093F201409308
:10076000F3015093F40180916F00826080936F00D9
:100770006FCFC092B3002093ED013093EE01409310
:10078000EF015093F00180917000826080937000BF
:100790005FCF84E0FFEFCF16D104E104F10409F04C
:1007A00008F432CFC980DA80EB80FC808AE0F594CF
:1007B000E794D794C7948A95D1F7E1E0CE1AD1088F
:1007C000E108F10885E020CF62E17AE780E090E07F
:1007D000A50194010E94180B69017A01E1E0CE1A8B
:1007E000D108E108F1081CC083E0FFEFCF16D10467
:1007F000E104F10409F00CF407CF62E17AE780E04C
:1008000090E0A50194010E94180B69017A0191E022
:10081000C91AD108E108F108EB85EE2309F4B9CF34
:1008200086E09FEFC916D104E104F10409F008F451
:10083000E0CEC980DA80EB80FC809AE0F594E79402
:10084000D794C7949A95D1F781E0C81AD108E108E6
:10085000F10887E0CECEAF92BF92CF92DF92EF92B7
:10086000FF920F931F93CF93DF936C017B018B015A
:10087000040F151FEB015E01AE18BF08C017D107AA
:1008800059F06991D601ED91FC910190F081E02D34
:10089000C6010995892B79F7C501DF91CF911F9189
:1008A0000F91FF90EF90DF90CF90BF90AF900895A1
:1008B000FC01538D448D252F30E0842F90E0821B66
:1008C000930B541710F0CF96089501970895FC01EB
:1008D000918D828D981761F0A28DAE0FBF2FB11D43
:1008E0005D968C91928D9F5F9F73928F90E008959B
:1008F0008FEF9FEF0895FC01918D828D981731F055
:10090000828DE80FF11D858D90E008958FEF9FEFA8
:100910000895FC01918D228D892F90E0805C9F4F7E
:10092000821B91098F73992708958BE491E00E94AF
:10093000890421E0892B09F420E0822F089580E0CA
:1009400090E0892B29F00E94950481110C940000FD
:100950000895FC01A48DA80FB92FB11DA35ABF4F54
:100960002C91848D90E001968F739927848FA689AE
:10097000B7892C93A089B1898C91837080648C9302
:10098000938D848D981306C00288F389E02D8081B1
:100990008F7D80830895EF92FF920F931F93CF93E3
:1009A000DF93EC0181E0888F9B8D8C8D98131AC0AA
:1009B000E889F989808185FF15C09FB7F894EE8991
:1009C000FF896083E889F9898081837080648083EE
:1009D0009FBF81E090E0DF91CF911F910F91FF9039
:1009E000EF900895F62E0B8D10E00F5F1F4F0F73E1
:1009F0001127E02E8C8D8E110CC00FB607FCFACF9C
:100A0000E889F989808185FFF5CFCE010E94A9048C
:100A1000F1CFEB8DEC0FFD2FF11DE35AFF4FF0826C
:100A20009FB7F8940B8FEA89FB8980818062CFCFD2
:100A3000CF93DF93EC01888D8823B9F0AA89BB8915
:100A4000E889F9898C9185FD03C0808186FD0DC000
:100A50000FB607FCF7CF8C9185FFF2CF808185FF21
:100A6000EDCFCE010E94A904E9CFDF91CF91089587
:100A7000FC0101900020E9F73197AF01481B590BA9
:100A8000BC018BE491E00C942B048F929F92AF9267
:100A9000BF920F931F93CF93DF93CDB7DEB7A1978C
:100AA0000FB6F894DEBF0FBECDBF19A2423008F4D6
:100AB0004AE08E010F5D1F4F842E912CB12CA12C8A
:100AC000A50194010E94F60AE62FB901CA01EA3095
:100AD000F4F4E05DD801EE938D01232B242B252B1C
:100AE00079F790E080E0109719F0CD010E94380569
:100AF000A1960FB6F894DEBF0FBECDBFDF91CF91A8
:100B00001F910F91BF90AF909F908F900895E95CD7
:100B1000E1CF1F920F920FB60F9211242F933F93A4
:100B20008F939F93AF93BF93809143019091440122
:100B3000A0914501B09146013091420123E0230F7D
:100B40002D3758F50196A11DB11D209342018093C8
:100B5000430190934401A0934501B09346018091D5
:100B6000470190914801A0914901B0914A01019635
:100B7000A11DB11D8093470190934801A0934901A5
:100B8000B0934A01BF91AF919F918F913F912F9167
:100B90000F900FBE0F901F90189526E8230F029616
:100BA000A11DB11DD2CF1F920F920FB60F9211242B
:100BB0002F933F934F935F936F937F938F939F9365
:100BC000AF93BF93EF93FF938091ED019091EE016E
:100BD000A091EF01B091F001892B8A2B8B2BD1F1E1
:100BE0009091E801E091E901F091EA018081892783
:100BF00080838091ED019091EE01A091EF01B09181
:100C0000F001181619061A061B069CF48091ED01D6
:100C10009091EE01A091EF01B091F0010197A1092F
:100C2000B1098093ED019093EE01A093EF01B09391
:100C3000F001FF91EF91BF91AF919F918F917F91C3
:100C40006F915F914F913F912F910F900FBE0F9039
:100C50001F901895809108010E946201EACF1F92AF
:100C60000F920FB60F9211242F933F934F935F93E0
:100C70006F937F938F939F93AF93BF93EF93FF9364
:100C80008BE491E00E94A904FF91EF91BF91AF9195
:100C90009F918F917F916F915F914F913F912F9194
:100CA0000F900FBE0F901F9018951F920F920FB6C6
:100CB0000F9211242F938F939F93EF93FF93E091C3
:100CC0005B01F0915C018081E0916101F091620132
:100CD00082FD1BC09081809164018F5F8F73209192
:100CE0006501821741F0E0916401F0E0E55BFE4FA1
:100CF000958F80936401FF91EF919F918F912F9138
:100D00000F900FBE0F901F9018958081F4CFCF9257
:100D1000DF92EF92FF920F931F93E82FF92F05C0F8
:100D2000015011092109310961F19081962394172D
:100D3000B9F305C0015011092109310911F1908160
:100D400096239413F7CFC12CD12CE12CF12C0AC09F
:100D50008FEFC81AD80AE80AF80A0C151D052E05E7
:100D60003F0579F080818623841791F36C2D7D2DCA
:100D70008E2D9F2D1F910F91FF90EF90DF90CF90C0
:100D8000089560E070E080E090E01F910F91FF9087
:100D9000EF90DF90CF900895789484B5826084BD01
:100DA00084B5816084BD85B5826085BD85B581606F
:100DB00085BD80916E00816080936E0010928100ED
:100DC00080918100826080938100809181008160A8
:100DD0008093810080918000816080938000809169
:100DE000B10084608093B1008091B00081608093F5
:100DF000B00080917A00846080937A0080917A00BC
:100E0000826080937A0080917A00816080937A007A
:100E100080917A00806880937A001092C10061E02E
:100E200082E00E94D90061E084E00E94D90061E084
:100E300087E00E94D90061E086E00E94D90061E06D
:100E40008AE00E94D90060E08CE00E94D90060E056
:100E50008DE00E94D900E0915B01F0915C0182E09D
:100E60008083E0915701F09158011082E09159017F
:100E7000F0915A018FEC808310926301E0915F0141
:100E8000F091600186E08083E0915D01F0915E0168
:100E9000808180618083E0915D01F0915E018081BD
:100EA00088608083E0915D01F0915E0180818068BF
:100EB0008083E0915D01F0915E0180818F7D808370
:100EC000C3E0D0E093E2A92EB12C2BEB222E20E040
:100ED000322E30E0832E30E0932E61E082E00E94DB
:100EE0008D0060E08AE00E948D00CE010197F1F74D
:100EF00061E08AE00E948D00C5010197F1F760E092
:100F00008AE00E948D00EDE9F0E06491F1018491A6
:100F1000E82FF0E0EE0FFF1FE859FF4F8591949105
:100F200000E412E42FE030E0462F0E9487066115AE
:100F300071058105910529F06F5F7F4F8F4F9F4F9E
:100F40009F700E94B90928E23EE74CE05DE30E94F1
:100F5000700A20E030E040E05FE30E94700A609396
:100F60003E0170933F0180934001909341018FE1D6
:100F700091E00E943805C0903E01D0903F01E09082
:100F80004001F0904101A7019601C701B6010E94FE
:100F9000DD0A882309F486C08FE291E00E943805BB
:100FA0008BE391E00E94380564E670E080E090E019
:100FB0000E942F0120E030E040EA50E460913E01C1
:100FC00070913F0180914001909141010E947E0902
:100FD00018160CF45BC068EE73E080E090E00E94AD
:100FE0002F0107E010E060E082E00E948D0060E9E0
:100FF00071E080E090E00E942F0161E082E00E94B9
:101000008D0060E971E080E090E00E942F010150C6
:10101000110949F760E082E00E948D0061E084E000
:101020000E948D0060EA7FE080E090E00E942F0146
:1010300060E084E00E948D0061E087E00E948D0006
:1010400008E010E084E091E00E948E0168EE73E019
:1010500080E090E00E942F010150110999F708E00B
:1010600010E080E091E00E948E016CEB72E080E085
:1010700090E00E942F010150110999F760E087E08C
:101080000E948D0061E082E00E948D008114910435
:1010900009F423CF0E949504882309F41ECF0E94EF
:1010A00000001BCF26013701E89477F82FEF3FEFC0
:1010B0004FE75FE7C301B2010E94DD0A81110DC055
:1010C0002FEF3FEF4FE75FE7C301B2010E947E09B8
:1010D00018161CF483E391E061CF2FEF3FEF4FE749
:1010E0005FE4C701B6010E946B0A18161CF487E37F
:1010F00091E054CF2FEF3FEF4FE75FECC701B60110
:101100000E947E0987FDF3CF20E030E0A901C701EE
:10111000B6010E947E0987FF09C06DE28BE491E071
:101120000E94CB04F7FAF094F7F8F0942AE037ED38
:1011300043EA5BE3C701B6010E9412092B013C019F
:101140000E948A096B017C010E94B9099B01AC01D4
:10115000C301B2010E9411092B013C014AE0C70101
:10116000B6010E9445056EE28BE491E00E94CB043B
:1011700020E030E040E251E4C301B2010E94700A75
:101180002B013C010E948A096B01F12CE12C4AE001
:10119000C701B6010E944505C701B6010E94B90901
:1011A0009B01AC01C301B2010E94110920E030E0B3
:1011B00040E251E40E94700A0E948A0990E080E0B7
:1011C0004AE00E944505ECCEEBE4F1E01382128286
:1011D00088EE93E0A0E0B0E084839583A683B78394
:1011E00081E191E09183808385EC90E0958784870D
:1011F00084EC90E09787868780EC90E0918B808BE1
:1012000081EC90E0938B828B82EC90E0958B848BC9
:1012100086EC90E0978B868B118E128E138E148E37
:1012200008955058BB27AA270E9429090C94310A17
:101230000E94230A38F00E942A0A20F039F49F3FC6
:1012400019F426F40C94200A0EF4E095E7FB0C94B4
:101250001A0AE92F0E94420A58F3BA176207730765
:101260008407950720F079F4A6F50C94640A0EF42F
:10127000E0950B2EBA2FA02D0B01B90190010C01A6
:10128000CA01A0011124FF27591B99F0593F50F4BE
:10129000503E68F11A16F040A22F232F342F442716
:1012A000585FF3CF469537952795A795F04053950E
:1012B000C9F77EF41F16BA0B620B730B840BBAF0DE
:1012C0009150A1F0FF0FBB1F661F771F881FC2F749
:1012D0000EC0BA0F621F731F841F48F4879577955D
:1012E0006795B795F7959E3F08F0B0CF9395880F17
:1012F00008F09927EE0F9795879508950E94F609B3
:1013000008F481E008950E948A096894B1110C9450
:10131000650A08950E944A0A88F09F5798F0B92FED
:101320009927B751B0F0E1F0660F771F881F991F1A
:101330001AF0BA95C9F714C0B13091F00E94640A4E
:10134000B1E008950C94640A672F782F8827B85F5E
:1013500039F0B93FCCF3869577956795B395D9F772
:101360003EF490958095709561957F4F8F4F9F4F7C
:101370000895E89409C097FB3EF490958095709588
:1013800061957F4F8F4F9F4F9923A9F0F92F96E9D1
:10139000BB279395F695879577956795B795F11146
:1013A000F8CFFAF4BB0F11F460FF1BC06F5F7F4FE3
:1013B0008F4F9F4F16C0882311F096E911C07723F5
:1013C00021F09EE8872F762F05C0662371F096E8FE
:1013D000862F70E060E02AF09A95660F771F881FCD
:1013E000DAF7880F9695879597F90895990F000871
:1013F000550FAA0BE0E8FEEF16161706E807F907E7
:10140000C0F012161306E407F50798F0621B730B81
:10141000840B950B39F40A2661F0232B242B252B02
:1014200021F408950A2609F4A140A6958FEF811DA5
:10143000811D089597F99F6780E870E060E0089546
:101440009FEF80EC089500240A94161617061806DC
:101450000906089500240A941216130614060506B8
:101460000895092E0394000C11F4882352F0BB0F49
:1014700040F4BF2B11F460FF04C06F5F7F4F8F4FAC
:101480009F4F089557FD9058440F551F59F05F3FE7
:1014900071F04795880F97FB991F61F09F3F79F096
:1014A00087950895121613061406551FF2CF469518
:1014B000F1DF08C0161617061806991FF1CF86959A
:1014C0007105610508940895E894BB27662777277E
:1014D000CB0197F908950E94F60908F48FEF08955B
:1014E0000E94830A0C94310A0E94230A38F00E9459
:1014F0002A0A20F0952311F00C941A0A0C94200A61
:1015000011240C94650A0E94420A70F3959FC1F35E
:10151000950F50E0551F629FF001729FBB27F00DA1
:10152000B11D639FAA27F00DB11DAA1F649F6627F6
:10153000B00DA11D661F829F2227B00DA11D621F45
:10154000739FB00DA11D621F839FA00D611D221FFF
:10155000749F3327A00D611D231F849F600D211DE3
:10156000822F762F6A2F11249F5750409AF0F1F066
:1015700088234AF0EE0FFF1FBB1F661F771F881FCF
:1015800091505040A9F79E3F510580F00C941A0AE3
:101590000C94650A5F3FE4F3983ED4F38695779503
:1015A0006795B795F795E7959F5FC1F7FE2B880F75
:1015B000911D9695879597F908950E94F609880BD5
:1015C000990B089597FB072E16F4009407D077FD2A
:1015D00009D00E943E0B07FC05D03EF49095819502
:1015E0009F4F0895709561957F4F0895A1E21A2E3F
:1015F000AA1BBB1BFD010DC0AA1FBB1FEE1FFF1FB7
:10160000A217B307E407F50720F0A21BB30BE40B06
:10161000F50B661F771F881F991F1A9469F760954D
:101620007095809590959B01AC01BD01CF01089507
:10163000052E97FB1EF400940E942F0B57FD07D038
:101640000E94F60A07FC03D04EF40C942F0B509521
:101650004095309521953F4F4F4F5F4F089590959E
:101660008095709561957F4F8F4F9F4F08950E9491
:10167000580BB7FF0895821B930B0895AA1BBB1B41
:1016800051E107C0AA1FBB1FA617B70710F0A61B82
:10169000B70B881F991F5A95A9F780959095BC01A3
:1016A000CD010895EE0FFF1F0590F491E02D0994F0
:1016B000A29FB001B39FC001A39F700D811D112493
:1016C000911DB29F700D811D1124911D0895F894F4
:1016D000FFCF0800080004000400FF550470030059
:1016E000000000CB042B0458041805890467047B10
:1016F0000444697374616E63652028636D293A2020
:10170000006E616E00696E66006F7666000D0A00FD
:107E0000112484B714BE81FFF0D085E080938100F7
:107E100082E08093C00088E18093C10086E0809377
:107E2000C20080E18093C4008EE0C9D0259A86E02C
:107E300020E33CEF91E0309385002093840096BBD3
:107E4000B09BFECF1D9AA8958150A9F7CC24DD24C4
:107E500088248394B5E0AB2EA1E19A2EF3E0BF2EE7
:107E6000A2D0813461F49FD0082FAFD0023811F036
:107E7000013811F484E001C083E08DD089C08234E0
:107E800011F484E103C0853419F485E0A6D080C0E4
:107E9000853579F488D0E82EFF2485D0082F10E0AE
:107EA000102F00270E291F29000F111F8ED06801E7
:107EB0006FC0863521F484E090D080E0DECF843638
:107EC00009F040C070D06FD0082F6DD080E0C81688
:107ED00080E7D80618F4F601B7BEE895C0E0D1E017
:107EE00062D089930C17E1F7F0E0CF16F0E7DF06D8
:107EF00018F0F601B7BEE89568D007B600FCFDCFD4
:107F0000A601A0E0B1E02C9130E011968C91119780
:107F100090E0982F8827822B932B1296FA010C0160
:107F200087BEE89511244E5F5F4FF1E0A038BF0790
:107F300051F7F601A7BEE89507B600FCFDCF97BE46
:107F4000E89526C08437B1F42ED02DD0F82E2BD052
:107F50003CD0F601EF2C8F010F5F1F4F84911BD097
:107F6000EA94F801C1F70894C11CD11CFA94CF0C13
:107F7000D11C0EC0853739F428D08EE10CD085E9AC
:107F80000AD08FE07ACF813511F488E018D01DD067
:107F900080E101D065CF982F8091C00085FFFCCF94
:107FA0009093C60008958091C00087FFFCCF809118
:107FB000C00084FD01C0A8958091C6000895E0E648
:107FC000F0E098E1908380830895EDDF803219F02E
:107FD00088E0F5DFFFCF84E1DECF1F93182FE3DFCA
:107FE0001150E9F7F2DF1F91089580E0E8DFEE27F6
:047FF000FF270994CA
:027FFE00040479
:00000001FF
