:100000000C9462000C947F000C947F000C947F0091
:100010000C947F000C947F000C947F000C9474046B
:100020000C947F000C947F000C947F000C947F0054
:100030000C947F000C947F000C947F000C947F0044
:100040000C942A040C947F000C947F000C947F0085
:100050000C947F000C947F000C947F000C947F0024
:100060000C947F000C947F00000000002300260009
:10007000290000000000240027002A0000000008DA
:10008000000201000003040700000000000000005F
:10009000010204081020408001020408102001021F
:1000A0000408102000000000250028002B00040494
:1000B0000404040404040202020202020303030310
:1000C0000303020011241FBECFEFD8E0DEBFCDBF77
:1000D00011E0A0E0B1E0E2EDFEE002C005900D927B
:1000E000AE30B107D9F721E0AEE0B1E001C01D921A
:1000F000A832B207E1F70E94D0040C9467070C9471
:100100000000833081F028F4813099F08230A9F02A
:1001100008958730A9F08830C9F08430B1F4809117
:1001200080008F7D03C0809180008F778093800056
:10013000089584B58F7784BD089584B58F7DFBCFF6
:100140008091B0008F778093B00008958091B000C7
:100150008F7DF9CF1F93CF93DF93282F30E0F901E4
:10016000E458FF4F8491F901E057FF4FD491F90112
:10017000E255FF4FC491CC23A9F0162F81110E94A4
:100180008100EC2FF0E0EE0FFF1FEC55FF4FA59123
:10019000B4918FB7F894EC91111108C0D095DE237B
:1001A000DC938FBFDF91CF911F910895DE2BF8CFA5
:1001B000CF93DF9390E0FC01E057FF4F24918255ED
:1001C0009F4FFC0184918823D1F090E0880F991F04
:1001D000FC01EE58FF4FA591B491FC01EC55FF4F87
:1001E000C591D49161110EC09FB7F8948C91E22F04
:1001F000E0958E238C932881E223E8839FBFDF91D3
:10020000CF9108958FB7F894EC91E22BEC938FBFC8
:10021000F6CF3FB7F8948091130190911401A0910B
:100220001501B091160126B5A89B05C02F3F19F006
:100230000196A11DB11D3FBFBA2FA92F982F882766
:10024000BC01CD01620F711D811D911D42E0660F41
:10025000771F881F991F4A95D1F708958F929F9213
:10026000AF92BF92CF92DF92EF92FF926B017C012F
:100270000E9409014B015C01C114D104E104F104A5
:10028000B9F00E940901681979098A099B09683E39
:1002900073408105910580F321E0C21AD108E1087D
:1002A000F10888EE880E83E0981EA11CB11CE4CFF3
:1002B000FF90EF90DF90CF90BF90AF909F908F9086
:1002C00008959091080189130BC0E2ECF0E0E491ED
:1002D0009FEF90930801E13049F028F0E23061F09F
:1002E00060E00C94AA0010926E00FACF90916F001B
:1002F0009D7F90936F00F4CF909170009D7F9093BD
:10030000700091E09093B0009091B100987F94605C
:100310009093B1001092B300E3CF2F923F924F928F
:100320005F926F927F928F929F92AF92BF92CF9285
:10033000DF92EF92FF920F931F93CF93DF93CDB78E
:10034000DEB72B970FB6F894DEBF0FBECDBF8C0182
:1003500089E091E09E838D83F8013496FA87E987DE
:10036000F801619171918F0188EE93E00E94E80697
:1003700078876F832B01770F66087708ED81FE8100
:1003800021903190FE83ED8380910801893009F03E
:100390007CC0E2ECF0E0F491FB87F7FD58C161E02E
:1003A00089E00E94D800FB85FF2321F08B858230F5
:1003B00009F083C14101B12CA12C60E072E18AE710
:1003C00090E0A50191010E941E0729833A834B8387
:1003D0005C8369017A0191E0C91AD108E108F1084A
:1003E000EFEFCE16D104E104F10409F00CF407C1DB
:1003F00060E472E48FE090E0A50191010E941E0785
:1004000069017A01F1E0CF1AD108E108F1088B8582
:10041000823009F0B1C082E09FEFC916D104E10437
:10042000F10409F00CF4E4C060E970ED83E090E0C1
:10043000A50191010E941E0769017A01E1E0CE1A2F
:10044000D108E108F10883E0FFEFCF16D104E10401
:10045000F10409F00CF4CCC068E478EE81E090E09F
:10046000A50191010E941E0769017A0181E0C81A65
:10047000D108E108F1089FEFC916D104E104F104A5
:1004800011F00CF09DC084E0B3C08F3F09F0DFC0D5
:1004900089E080930801E2ECF0E0F491FB87FF3FF4
:1004A00009F4D5C0F13031F158F0F23009F441C00F
:1004B000FB85F7FDCCC061E089E00E94D80076CFD3
:1004C00014BC15BC84B5826084BD85B5816085BDD2
:1004D000E7EBF0E08491E82FF0E0EE0FFF1FEC5522
:1004E000FF4F85919491E9E9F0E0849180931B019D
:1004F0001B8655CF10928000109281008091810060
:100500008860809381008091810081608093810068
:10051000E7EBF0E08491E82FF0E0EE0FFF1FEC55E1
:10052000FF4F85919491E9E9F0E0849180931A015D
:1005300036CF1092B0001092B1008091B00082606E
:100540008093B0008091B10081608093B100E7EBAF
:10055000F0E08491E82FF0E0EE0FFF1FEC55FF4F25
:10056000859194919093190180931801E9E9F0E045
:1005700084918093170113CF8FEFC816D104E10443
:10058000F10409F00CF497C068E478EE81E090E0A3
:10059000A50191010E941E0769017A0191E0C91A23
:1005A000D108E108F108EB85EE2309F41CC18FEFB7
:1005B000C816D104E104F10411F00CF01DC163CFA1
:1005C00064E274EF80E090E0A50194010E941E07B0
:1005D00069017A01F1E0CF1AD108E108F1088FEF43
:1005E000C816D104E104F10411F008F0ECC085E074
:1005F0009091B100987F892B8093B10008C081E071
:10060000FB85F111F5CF95B5987F892B85BD2FEF2F
:100610003FEFA901411451046104710409F077C04E
:100620008B85813009F492C0823009F4A1C0811118
:100630000EC0C7BC209324013093250140932601AE
:100640005093270180916E00826080936E00C301F9
:10065000B2010E94EF0526E636E646EA5FE30E9415
:1006600053060E94B705072E000C880B990B0E94B9
:100670002E0189E00E946101E985FA85E017F10702
:1006800009F06ECE2B960FB6F894DEBF0FBECDBF2D
:10069000DF91CF911F910F91FF90EF90DF90CF905E
:1006A000BF90AF909F908F907F906F905F904F9092
:1006B0003F902F90089582E0A3CFB12CA12C60E051
:1006C00072E18AE790E0A50191010E941E0769018D
:1006D0007A0181E0C81AD108E108F108C114D104F7
:1006E00091E0E906F1040CF591E0FB85F13009F0A9
:1006F0008ECF80918100887F892B809381002FEF9E
:100700003FEFA9014114510461047104F9F0910112
:10071000220F331FAF81B8850E943D0728EE33E0DA
:1007200040E050E00E94FC067BCF68E478EE81E078
:1007300090E0A50191010E941E0769017A01E1E0A4
:10074000CE1AD108E108F10893E0CFCFD09289000A
:10075000C092880020932001309321014093220110
:100760005093230180916F00826080936F006FCF60
:10077000C092B30020931C0130931D0140931E01D1
:1007800050931F01809170008260809370005FCF52
:1007900084E0FFEFCF16D104E104F10409F008F47E
:1007A00032CFC980DA80EB80FC808AE0F594E79450
:1007B000D794C7948A95D1F7E1E0CE1AD108E10821
:1007C000F10885E020CF62E17AE780E090E0A501C2
:1007D00094010E941E0769017A01E1E0CE1AD10856
:1007E000E108F1081CC083E0FFEFCF16D104E1045B
:1007F000F10409F00CF407CF62E17AE780E090E0C1
:10080000A50194010E941E0769017A0191E0C91AAD
:10081000D108E108F108EB85EE2309F4B9CF86E0B1
:100820009FEFC916D104E104F10409F008F4E0CE09
:10083000C980DA80EB80FC809AE0F594E794D79445
:10084000C7949A95D1F781E0C81AD108E108F10858
:1008500087E0CECE1F920F920FB60F9211242F93E6
:100860003F938F939F93AF93BF9380910F0190918C
:100870001001A0911101B091120130910E0123E0FD
:10088000230F2D3758F50196A11DB11D20930E01A0
:1008900080930F0190931001A0931101B093120166
:1008A0008091130190911401A0911501B09116014E
:1008B0000196A11DB11D8093130190931401A09383
:1008C0001501B0931601BF91AF919F918F913F9108
:1008D0002F910F900FBE0F901F90189526E8230FB1
:1008E0000296A11DB11DD2CF1F920F920FB60F928B
:1008F00011242F933F934F935F936F937F938F9325
:100900009F93AF93BF93EF93FF9380911C019091BE
:100910001D01A0911E01B0911F01892B8A2B8B2BE9
:10092000D1F190911701E0911801F09119018081A6
:100930008927808380911C0190911D01A0911E0147
:10094000B0911F01181619061A061B069CF4809117
:100950001C0190911D01A0911E01B0911F010197F2
:10096000A109B10980931C0190931D01A0931E0160
:10097000B0931F01FF91EF91BF91AF919F918F9124
:100980007F916F915F914F913F912F910F900FBE8B
:100990000F901F901895809108010E946101EACF85
:1009A000789484B5826084BD84B5816084BD85B54A
:1009B000826085BD85B5816085BD80916E00816056
:1009C00080936E00109281008091810082608093FC
:1009D00081008091810081608093810080918000FE
:1009E0008160809380008091B10084608093B10029
:1009F0008091B00081608093B00080917A00846023
:100A000080937A0080917A00826080937A0080914E
:100A10007A00816080937A0080917A008068809368
:100A20007A001092C10061E087E00E94D80061E086
:100A300084E00E94D80061E082E00E94D80061E07A
:100A400089E00E94D80060E08AE00E94D800C6E8F1
:100A5000D0E00AE910E048EBE42E40E0F42E50E04C
:100A6000C52E50E0D52E61E087E00E94AA00FE016D
:100A70008491F801A490F701B490BB2009F470C0F0
:100A800081110E948100EB2DF0E0EE0FFF1FE8596D
:100A9000FF4FA591B4918C91A82209F461C068EE32
:100AA00073E080E090E00E942E0127E0A22EB12C9E
:100AB00060E087E00E94AA0060E971E080E090E0D9
:100AC0000E942E0161E087E00E94AA0060E971E0C7
:100AD00080E090E00E942E01F1E0AF1AB10841F7EA
:100AE00060E087E00E94AA0061E084E00E94AA0022
:100AF00060EA7FE080E090E00E942E0160E084E008
:100B00000E94AA0061E082E00E94AA0098E0A92E5B
:100B1000B12C84E091E00E948D0168EE73E080E0EA
:100B200090E00E942E0181E0A81AB10891F788E0B8
:100B3000A82EB12C80E091E00E948D016CEB72E058
:100B400080E090E00E942E01E1E0AE1AB10891F73A
:100B500060E082E00E94AA0061E087E00E94AA00B3
:100B6000C114D10409F47FCF0E9400007CCF0E9401
:100B7000BE056894B1110C944D0608950E9432068A
:100B800088F09F5798F0B92F9927B751B0F0E1F04E
:100B9000660F771F881F991F1AF0BA95C9F714C0FE
:100BA000B13091F00E944C06B1E008950C944C06CF
:100BB000672F782F8827B85F39F0B93FCCF3869537
:100BC00077956795B395D9F73EF490958095709594
:100BD00061957F4F8F4F9F4F0895E89409C097FB11
:100BE0003EF490958095709561957F4F8F4F9F4F04
:100BF0009923A9F0F92F96E9BB279395F695879548
:100C000077956795B795F111F8CFFAF4BB0F11F40A
:100C100060FF1BC06F5F7F4F8F4F9F4F16C08823B1
:100C200011F096E911C0772321F09EE8872F762FE7
:100C300005C0662371F096E8862F70E060E02AF028
:100C40009A95660F771F881FDAF7880F9695879514
:100C500097F9089557FD9058440F551F59F05F3F7D
:100C600071F04795880F97FB991F61F09F3F79F0CE
:100C700087950895121613061406551FF2CF469550
:100C8000F1DF08C0161617061806991FF1CF8695D2
:100C90007105610508940895E894BB2766277727B6
:100CA000CB0197F908950E9466060C94D7060E941E
:100CB000C90638F00E94D00620F0952311F00C945C
:100CC000C0060C94C60611240C944D060E942A06F8
:100CD00070F3959FC1F3950F50E0551F629FF0018F
:100CE000729FBB27F00DB11D639FAA27F00DB11DA8
:100CF000AA1F649F6627B00DA11D661F829F222731
:100D0000B00DA11D621F739FB00DA11D621F839FB7
:100D1000A00D611D221F749F3327A00D611D231F8D
:100D2000849F600D211D822F762F6A2F11249F57DB
:100D300050409AF0F1F088234AF0EE0FFF1FBB1FDE
:100D4000661F771F881F91505040A9F79E3F51059D
:100D500080F00C94C0060C944D065F3FE4F3983E7F
:100D6000D4F3869577956795B795F795E7959F5F47
:100D7000C1F7FE2B880F911D9695879597F90895D9
:100D800097F99F6780E870E060E008959FEF80EC3E
:100D9000089500240A9416161706180609060895E1
:100DA00000240A9412161306140605060895092E47
:100DB0000394000C11F4882352F0BB0F40F4BF2BB6
:100DC00011F460FF04C06F5F7F4F8F4F9F4F0895F6
:100DD00097FB072E16F4009407D077FD09D00E94E8
:100DE000440707FC05D03EF4909581959F4F0895E8
:100DF000709561957F4F0895A1E21A2EAA1BBB1B27
:100E0000FD010DC0AA1FBB1FEE1FFF1FA217B307D6
:100E1000E407F50720F0A21BB30BE40BF50B661FEC
:100E2000771F881F991F1A9469F7609570958095B0
:100E300090959B01AC01BD01CF010895052E97FB54
:100E40001EF400940E94350757FD07D00E94FC064F
:100E500007FC03D04EF40C9435075095409530951F
:100E600021953F4F4F4F5F4F089590958095709516
:100E700061957F4F8F4F9F4F08950E945807B7FF8E
:100E80000895821B930B0895AA1BBB1B51E107C059
:100E9000AA1FBB1FA617B70710F0A61BB70B881F0A
:100EA000991F5A95A9F780959095BC01CD01089599
:100EB000A29FB001B39FC001A39F700D811D11249B
:100EC000911DB29F700D811D1124911D0895F894FC
:020ED000FFCF52
:0E0ED2000800080004000400FF55047003002F
:00000001FF
